{
  "contractName": "Dex",
  "abi": [
    {
      "inputs": [
        {
          "internalType": "address",
          "name": "_token",
          "type": "address"
        }
      ],
      "stateMutability": "nonpayable",
      "type": "constructor"
    },
    {
      "anonymous": false,
      "inputs": [
        {
          "indexed": true,
          "internalType": "address",
          "name": "user",
          "type": "address"
        },
        {
          "indexed": false,
          "internalType": "uint256",
          "name": "amount",
          "type": "uint256"
        }
      ],
      "name": "DepositedETH",
      "type": "event"
    },
    {
      "anonymous": false,
      "inputs": [
        {
          "indexed": true,
          "internalType": "address",
          "name": "user",
          "type": "address"
        },
        {
          "indexed": false,
          "internalType": "uint256",
          "name": "amount",
          "type": "uint256"
        }
      ],
      "name": "DepositedToken",
      "type": "event"
    },
    {
      "anonymous": false,
      "inputs": [
        {
          "indexed": true,
          "internalType": "address",
          "name": "user",
          "type": "address"
        },
        {
          "indexed": false,
          "internalType": "uint256",
          "name": "ethAmount",
          "type": "uint256"
        },
        {
          "indexed": false,
          "internalType": "uint256",
          "name": "tokenAmount",
          "type": "uint256"
        }
      ],
      "name": "SwappedETHforToken",
      "type": "event"
    },
    {
      "anonymous": false,
      "inputs": [
        {
          "indexed": true,
          "internalType": "address",
          "name": "user",
          "type": "address"
        },
        {
          "indexed": false,
          "internalType": "uint256",
          "name": "tokenAmount",
          "type": "uint256"
        },
        {
          "indexed": false,
          "internalType": "uint256",
          "name": "ethAmount",
          "type": "uint256"
        }
      ],
      "name": "SwappedTokenforETH",
      "type": "event"
    },
    {
      "inputs": [
        {
          "internalType": "address",
          "name": "",
          "type": "address"
        }
      ],
      "name": "ethBalance",
      "outputs": [
        {
          "internalType": "uint256",
          "name": "",
          "type": "uint256"
        }
      ],
      "stateMutability": "view",
      "type": "function"
    },
    {
      "inputs": [],
      "name": "token",
      "outputs": [
        {
          "internalType": "contract Token",
          "name": "",
          "type": "address"
        }
      ],
      "stateMutability": "view",
      "type": "function"
    },
    {
      "inputs": [
        {
          "internalType": "address",
          "name": "",
          "type": "address"
        }
      ],
      "name": "tokenBalance",
      "outputs": [
        {
          "internalType": "uint256",
          "name": "",
          "type": "uint256"
        }
      ],
      "stateMutability": "view",
      "type": "function"
    },
    {
      "inputs": [],
      "name": "depositETH",
      "outputs": [],
      "stateMutability": "payable",
      "type": "function"
    },
    {
      "inputs": [
        {
          "internalType": "uint256",
          "name": "_amount",
          "type": "uint256"
        }
      ],
      "name": "depositToken",
      "outputs": [],
      "stateMutability": "nonpayable",
      "type": "function"
    },
    {
      "inputs": [
        {
          "internalType": "uint256",
          "name": "_ethAmount",
          "type": "uint256"
        }
      ],
      "name": "swapETHforToken",
      "outputs": [],
      "stateMutability": "nonpayable",
      "type": "function"
    },
    {
      "inputs": [
        {
          "internalType": "uint256",
          "name": "_tokenAmount",
          "type": "uint256"
        }
      ],
      "name": "swapTokenforETH",
      "outputs": [],
      "stateMutability": "nonpayable",
      "type": "function"
    }
  ],
  "bytecode": "0x608060405234801561000f575f80fd5b506040516200101438038062001014833981810160405281019061003391906100d6565b805f806101000a81548173ffffffffffffffffffffffffffffffffffffffff021916908373ffffffffffffffffffffffffffffffffffffffff16021790555050610101565b5f80fd5b5f73ffffffffffffffffffffffffffffffffffffffff82169050919050565b5f6100a58261007c565b9050919050565b6100b58161009b565b81146100bf575f80fd5b50565b5f815190506100d0816100ac565b92915050565b5f602082840312156100eb576100ea610078565b5b5f6100f8848285016100c2565b91505092915050565b610f05806200010f5f395ff3fe60806040526004361061006f575f3560e01c8063e511d8011161004d578063e511d801146100ff578063eedc966a14610127578063f6326fb314610163578063fc0c546a1461016d5761006f565b80636215be77146100735780639fe4c6c11461009b578063d8f3790f146100c3575b5f80fd5b34801561007e575f80fd5b50610099600480360381019061009491906108af565b610197565b005b3480156100a6575f80fd5b506100c160048036038101906100bc91906108af565b610316565b005b3480156100ce575f80fd5b506100e960048036038101906100e49190610934565b610579565b6040516100f6919061096e565b60405180910390f35b34801561010a575f80fd5b50610125600480360381019061012091906108af565b61058e565b005b348015610132575f80fd5b5061014d60048036038101906101489190610934565b61075b565b60405161015a919061096e565b60405180910390f35b61016b610770565b005b348015610178575f80fd5b50610181610855565b60405161018e91906109e2565b60405180910390f35b5f8054906101000a900473ffffffffffffffffffffffffffffffffffffffff1673ffffffffffffffffffffffffffffffffffffffff166323b872dd3330846040518463ffffffff1660e01b81526004016101f393929190610a0a565b6020604051808303815f875af115801561020f573d5f803e3d5ffd5b505050506040513d601f19601f820116820180604052508101906102339190610a74565b610272576040517f08c379a000000000000000000000000000000000000000000000000000000000815260040161026990610af9565b60405180910390fd5b8060025f3373ffffffffffffffffffffffffffffffffffffffff1673ffffffffffffffffffffffffffffffffffffffff1681526020019081526020015f205f8282546102be9190610b44565b925050819055503373ffffffffffffffffffffffffffffffffffffffff167f0a3641841709764e7fddb9e250125a825976f5b18478824f0895a64677e905618260405161030b919061096e565b60405180910390a250565b8060015f3373ffffffffffffffffffffffffffffffffffffffff1673ffffffffffffffffffffffffffffffffffffffff1681526020019081526020015f20541015610396576040517f08c379a000000000000000000000000000000000000000000000000000000000815260040161038d90610bc1565b60405180910390fd5b5f6064826103a49190610bdf565b9050805f8054906101000a900473ffffffffffffffffffffffffffffffffffffffff1673ffffffffffffffffffffffffffffffffffffffff166370a08231306040518263ffffffff1660e01b81526004016103ff9190610c20565b602060405180830381865afa15801561041a573d5f803e3d5ffd5b505050506040513d601f19601f8201168201806040525081019061043e9190610c4d565b101561047f576040517f08c379a000000000000000000000000000000000000000000000000000000000815260040161047690610cc2565b60405180910390fd5b8160015f3373ffffffffffffffffffffffffffffffffffffffff1673ffffffffffffffffffffffffffffffffffffffff1681526020019081526020015f205f8282546104cb9190610ce0565b925050819055508060025f3373ffffffffffffffffffffffffffffffffffffffff1673ffffffffffffffffffffffffffffffffffffffff1681526020019081526020015f205f82825461051e9190610b44565b925050819055503373ffffffffffffffffffffffffffffffffffffffff167f9ed8f82d9cc9a408971cf5ae191c610b089c43a3a8da284bf4092a1a34c2d974838360405161056d929190610d13565b60405180910390a25050565b6001602052805f5260405f205f915090505481565b8060025f3373ffffffffffffffffffffffffffffffffffffffff1673ffffffffffffffffffffffffffffffffffffffff1681526020019081526020015f2054101561060e576040517f08c379a000000000000000000000000000000000000000000000000000000000815260040161060590610d84565b60405180910390fd5b5f60648261061c9190610dcf565b905080471015610661576040517f08c379a000000000000000000000000000000000000000000000000000000000815260040161065890610e49565b60405180910390fd5b8160025f3373ffffffffffffffffffffffffffffffffffffffff1673ffffffffffffffffffffffffffffffffffffffff1681526020019081526020015f205f8282546106ad9190610ce0565b925050819055508060015f3373ffffffffffffffffffffffffffffffffffffffff1673ffffffffffffffffffffffffffffffffffffffff1681526020019081526020015f205f8282546107009190610b44565b925050819055503373ffffffffffffffffffffffffffffffffffffffff167fb0336486ae0f7378171139ea6ca69a129f61628f6ac7b01d42a2e820b0e3e499838360405161074f929190610d13565b60405180910390a25050565b6002602052805f5260405f205f915090505481565b5f34116107b2576040517f08c379a00000000000000000000000000000000000000000000000000000000081526004016107a990610eb1565b60405180910390fd5b3460015f3373ffffffffffffffffffffffffffffffffffffffff1673ffffffffffffffffffffffffffffffffffffffff1681526020019081526020015f205f8282546107fe9190610b44565b925050819055503373ffffffffffffffffffffffffffffffffffffffff167f81ad7215cbec0a1d55a48f38b34525d2b677147ee7ceb872ac23ecca5ec966e53460405161084b919061096e565b60405180910390a2565b5f8054906101000a900473ffffffffffffffffffffffffffffffffffffffff1681565b5f80fd5b5f819050919050565b61088e8161087c565b8114610898575f80fd5b50565b5f813590506108a981610885565b92915050565b5f602082840312156108c4576108c3610878565b5b5f6108d18482850161089b565b91505092915050565b5f73ffffffffffffffffffffffffffffffffffffffff82169050919050565b5f610903826108da565b9050919050565b610913816108f9565b811461091d575f80fd5b50565b5f8135905061092e8161090a565b92915050565b5f6020828403121561094957610948610878565b5b5f61095684828501610920565b91505092915050565b6109688161087c565b82525050565b5f6020820190506109815f83018461095f565b92915050565b5f819050919050565b5f6109aa6109a56109a0846108da565b610987565b6108da565b9050919050565b5f6109bb82610990565b9050919050565b5f6109cc826109b1565b9050919050565b6109dc816109c2565b82525050565b5f6020820190506109f55f8301846109d3565b92915050565b610a04816108f9565b82525050565b5f606082019050610a1d5f8301866109fb565b610a2a60208301856109fb565b610a37604083018461095f565b949350505050565b5f8115159050919050565b610a5381610a3f565b8114610a5d575f80fd5b50565b5f81519050610a6e81610a4a565b92915050565b5f60208284031215610a8957610a88610878565b5b5f610a9684828501610a60565b91505092915050565b5f82825260208201905092915050565b7f546f6b656e207472616e73666572206661696c656400000000000000000000005f82015250565b5f610ae3601583610a9f565b9150610aee82610aaf565b602082019050919050565b5f6020820190508181035f830152610b1081610ad7565b9050919050565b7f4e487b71000000000000000000000000000000000000000000000000000000005f52601160045260245ffd5b5f610b4e8261087c565b9150610b598361087c565b9250828201905080821115610b7157610b70610b17565b5b92915050565b7f4e6f7420656e6f75676820455448206465706f736974656400000000000000005f82015250565b5f610bab601883610a9f565b9150610bb682610b77565b602082019050919050565b5f6020820190508181035f830152610bd881610b9f565b9050919050565b5f610be98261087c565b9150610bf48361087c565b9250828202610c028161087c565b91508282048414831517610c1957610c18610b17565b5b5092915050565b5f602082019050610c335f8301846109fb565b92915050565b5f81519050610c4781610885565b92915050565b5f60208284031215610c6257610c61610878565b5b5f610c6f84828501610c39565b91505092915050565b7f4e6f7420656e6f75676820746f6b656e7320696e20706f6f6c000000000000005f82015250565b5f610cac601983610a9f565b9150610cb782610c78565b602082019050919050565b5f6020820190508181035f830152610cd981610ca0565b9050919050565b5f610cea8261087c565b9150610cf58361087c565b9250828203905081811115610d0d57610d0c610b17565b5b92915050565b5f604082019050610d265f83018561095f565b610d33602083018461095f565b9392505050565b7f4e6f7420656e6f75676820746f6b656e73206465706f736974656400000000005f82015250565b5f610d6e601b83610a9f565b9150610d7982610d3a565b602082019050919050565b5f6020820190508181035f830152610d9b81610d62565b9050919050565b7f4e487b71000000000000000000000000000000000000000000000000000000005f52601260045260245ffd5b5f610dd98261087c565b9150610de48361087c565b925082610df457610df3610da2565b5b828204905092915050565b7f4e6f7420656e6f7567682045544820696e20706f6f6c000000000000000000005f82015250565b5f610e33601683610a9f565b9150610e3e82610dff565b602082019050919050565b5f6020820190508181035f830152610e6081610e27565b9050919050565b7f4d7573742073656e6420455448000000000000000000000000000000000000005f82015250565b5f610e9b600d83610a9f565b9150610ea682610e67565b602082019050919050565b5f6020820190508181035f830152610ec881610e8f565b905091905056fea2646970667358221220d9fa0d1f9aba9187667ddcf53560da5e56bc0692ba88ff9d2321d77b7b68ca1f64736f6c63430008140033",
  "immutableReferences": {},
  "source": "// SPDX-License-Identifier: MIT\r\npragma solidity ^0.8.0;\r\n\r\nimport \"./Token.sol\";\r\n\r\n/// @title Simple Decentralized Exchange (DEX)\r\n/// @notice Allows users to deposit ETH and tokens, and perform swaps\r\n/// @dev Minimal example for learning purposes only, not for production use\r\n\r\ncontract Dex {\r\n    Token public token;\r\n\r\n    mapping(address => uint256) public ethBalance;\r\n    mapping(address => uint256) public tokenBalance;\r\n\r\n    event DepositedETH(address indexed user, uint256 amount);\r\n    event DepositedToken(address indexed user, uint256 amount);\r\n    event SwappedETHforToken(address indexed user, uint256 ethAmount, uint256 tokenAmount);\r\n    event SwappedTokenforETH(address indexed user, uint256 tokenAmount, uint256 ethAmount);\r\n\r\n    constructor(address _token) {\r\n        token = Token(_token);\r\n    }\r\n\r\n    // Deposit ETH into the DEX\r\n    function depositETH() public payable {\r\n        require(msg.value > 0, \"Must send ETH\");\r\n        ethBalance[msg.sender] += msg.value;\r\n        emit DepositedETH(msg.sender, msg.value);\r\n    }\r\n\r\n    // Deposit ERC20 tokens into the DEX\r\n    function depositToken(uint256 _amount) public {\r\n        require(token.transferFrom(msg.sender, address(this), _amount), \"Token transfer failed\");\r\n        tokenBalance[msg.sender] += _amount;\r\n        emit DepositedToken(msg.sender, _amount);\r\n    }\r\n\r\n    // Swap ETH for Tokens (very simple pricing, 1 ETH = 100 Tokens for demo)\r\n    function swapETHforToken(uint256 _ethAmount) public {\r\n        require(ethBalance[msg.sender] >= _ethAmount, \"Not enough ETH deposited\");\r\n        uint256 tokenAmount = _ethAmount * 100; // fixed rate for simplicity\r\n        require(token.balanceOf(address(this)) >= tokenAmount, \"Not enough tokens in pool\");\r\n\r\n        ethBalance[msg.sender] -= _ethAmount;\r\n        tokenBalance[msg.sender] += tokenAmount;\r\n\r\n        emit SwappedETHforToken(msg.sender, _ethAmount, tokenAmount);\r\n    }\r\n\r\n    // Swap Tokens for ETH (reverse of above)\r\n    function swapTokenforETH(uint256 _tokenAmount) public {\r\n        require(tokenBalance[msg.sender] >= _tokenAmount, \"Not enough tokens deposited\");\r\n        uint256 ethAmount = _tokenAmount / 100; // fixed rate\r\n\r\n        require(address(this).balance >= ethAmount, \"Not enough ETH in pool\");\r\n\r\n        tokenBalance[msg.sender] -= _tokenAmount;\r\n        ethBalance[msg.sender] += ethAmount;\r\n\r\n        emit SwappedTokenforETH(msg.sender, _tokenAmount, ethAmount);\r\n    }\r\n}\r\n",
  "sourcePath": "C:\\Users\\Jainil\\Downloads\\Ethereum-DEX\\contracts\\Dex.sol",
  "compiler": {
    "name": "solc",
    "version": "0.8.20+commit.a1b79de6.Emscripten.clang"
  },
  "schemaVersion": "3.4.16",
  "updatedAt": "2025-09-02T08:23:12.516Z",
  "devdoc": {
    "details": "Minimal example for learning purposes only, not for production use",
    "kind": "dev",
    "methods": {},
    "title": "Simple Decentralized Exchange (DEX)",
    "version": 1
  },
  "userdoc": {
    "kind": "user",
    "methods": {},
    "notice": "Allows users to deposit ETH and tokens, and perform swaps",
    "version": 1
  }
}